:020000040800F2
:10000000D82C0020A1010008891F0008A7020008C1
:10001000B51E0008510B0008A128000800000000D0
:10002000000000000000000000000000992200080D
:100030006D13000800000000F301000855230008BC
:10004000BB010008BB010008BB010008BB010008A0
:10005000BB010008BB010008BB010008BB01000890
:10006000BB010008BB010008BB010008BB01000880
:10007000BB010008BB010008BB010008BB01000870
:10008000BB010008BB010008BB010008BB01000860
:10009000550B0008BB010008BB010008BB010008AC
:1000A000BB010008BB01000891240008BB01000847
:1000B000BB010008BB010008BB010008BB01000830
:1000C000BB010008BB010008BB010008BB01000820
:1000D000BB0100083D260008A1260008E52600080F
:1000E000BB010008BB010008BB010008BB01000800
:1000F000BB010008BB010008BB010008BB010008F0
:10010000BB010008BB010008BB010008BB010008DF
:10011000BD250008FD250008BB010008BB01000843
:10012000BB010008BB010008BB010008BB010008BF
:10013000BB010008BB010008BB010008BB010008AF
:10014000610B0008BB010008BB010008BB010008EF
:10015000BB010008BB010008BB01000825270008FF
:10016000BB010008BB010008BB010008BB0100087F
:10017000BB010008BB010008BB010008BB0100086F
:10018000BB010008BB010008DFF810D000F054FBF1
:1001900000480047B3080008AFF30080D82C0020C7
:1001A0000648804706480047FEE7FEE7FEE7FEE711
:1001B000FEE7FEE7FEE7FEE7FEE7FEE7692300084D
:1001C00089010008EFF3108072B6704780F3108841
:1001D00070473A4A1368012B04D04FF001031360B3
:1001E000374A1060374A116037484FF0805101603C
:1001F0007047EFF3108272B63048016851B34FF088
:10020000000101602E48016891B1EFF309811EF0F1
:10021000100F08BF21ED108B21E9F00F4FF0000403
:100220001EF0100F08BF012441F8044D0068016062
:1002300024490968096808C9B1E8F00F002B18BF04
:10024000B1EC108B81F309884EF0100E002B18BF13
:100250002EF0100E82F310884EF0040E70471949EC
:100260000860EFF3148222F0040282F31488144928
:100270004FF00000086011494FF00100086013487A
:100280004FF47F01D0F8002041EA020101600E48DE
:100290004FF0805101600E480068006880F30888C4
:1002A00061B662B67047EFF3098000B503F0F2FE65
:1002B0005DF804EB4EF0040E7047000024010020AE
:1002C0001C0100202001002004ED00E020ED00E0F2
:1002D00008ED00E040EA01039B0703D009E008C9EC
:1002E000121F08C0042AFAD203E011F8013B00F8FB
:1002F000013B521EF9D27047D2B201E000F8012B47
:10030000491EFBD270470022F6E710B513460A4695
:1003100004461946FFF7F0FF204610BD2DE9FE4FB9
:10032000804681EA0300C00F0C46009021F0004196
:1003300023F00045B8EB0200A94105D24046214612
:1003400090461C460B46024623F00040104347D01F
:10035000270DC7F30A00C3F30A510290401A019017
:1003600040286BDAC3F3130040F4801B00989246D8
:1003700020B10023D2EB030A63EB0B0B0198594623
:10038000C0F14002504600F098F906460D4650462E
:100390005946019A00F0B0F910EB080061410024C1
:1003A00087EA115284EAE7731A4340D0009A62B395
:1003B000019A012A4FEA075215DC001B61EB02018A
:1003C0004FF0004202EA0752CDE90042001C41F51D
:1003D000801132462B4600F0B0F903B0BDE8F08F33
:1003E00040462146F9E7001B61EB0201001C41F584
:1003F000801300185B412018A2F5001747EB03019A
:1004000040EAD570B6196D4111E06D084FEA360625
:1004100045EAC0754FEA0752001B61EB0201001C60
:1004200041F5801149084FEA300000195141324628
:100430002B4603B0BDE8F04F00F070B900980122E0
:1004400040000023D0EB020263EBE07300982146EA
:100450004FEAE074B8EB000061EB0401E9E783F0D8
:1004600000435BE781F0004158E72DE9FE4F81EA48
:10047000030404F0004421F0004100944FF0000B0D
:1004800023F0004350EA01045ED052EA03045BD03B
:10049000C3F30A54C1F30A552C44A4F2F334019473
:1004A000A0FB0254C1F3130141F48011C3F3130301
:1004B00043F4801301FB024400FB034E840A970AB5
:1004C00044EA815447EA8357A4FB076802958D0AE2
:1004D00005FB07854FEA932C04FB0C542705029D6E
:1004E0004FEA065847EA1637B5EB08056EEB070CDE
:1004F000870E920E47EA811742EA8312A7FB020198
:10050000B6EB0B0164EB00042B0D43EA0C335E18D1
:1005100044EB1C50DA465146E7FB0201C5F31304D5
:100520004FEA0B3343EA14534FEA0432019C43EA87
:100530000603A4F10C040294009CCDE900B400F081
:10054000FCF803B0BDE8F08F00200146F9E72DE983
:10055000F04D81EA030404F0004B21F000451446FD
:100560004FF0000A23F0004150EA050220D054EA7F
:1005700001021DD0C5F30A570246C5F31303C1F3A8
:100580001300C1F30A5640F4801543F48013A7EB1F
:100590000608101BD64608F2FD3873EB050002D39F
:1005A00008F1010801E092185B41B8F1000F03DA8D
:1005B00000200146BDE8F08D00204FF48011064672
:1005C00084460EE0171B73EB050705D3121B63EB84
:1005D000050306434CEA010C49084FEA3000921823
:1005E0005B4150EA0107EDD152EA030012D082EAE2
:1005F000040083EA0501084305D0101BAB4106D275
:100600000122002306E000224FF0004302E06FF0D9
:10061000010253101AEB06004CEB085110EB0A00D4
:1006200041EB0B01BDE8F04D00F078B830B50B465A
:10063000014600202022012409E021FA02F59D4212
:1006400005D303FA02F5491B04FA02F52844151EE6
:10065000A2F10102F1DC30BD2DE9F05F054600207A
:1006600092469B4688460646814640241BE0284623
:1006700041464746224600F02FF853465A46C01AD4
:10068000914110D311461846224600F016F82D1A53
:1006900067EB01084F4622460120002100F00DF8CB
:1006A00017EB00094E41201EA4F10104DFDC48468F
:1006B00031462A464346BDE8F09F202A04DB203A13
:1006C00000FA02F1002070479140C2F1200320FAA5
:1006D00003F3194390407047202A04DB203A21FAA3
:1006E00002F00021704721FA02F3D040C2F120024B
:1006F0009140084319467047202A06DBCB17203A61
:1007000041FA02F043EAE07306E041FA02F3D04016
:10071000C2F12002914008431946704710B5141EDB
:1007200073F1000408DA401C41F1000192185B41AA
:100730001A4301D120F0010010BD2DE9F04D924681
:100740009B4611B1B1FA81F202E0B0FA80F2203298
:100750009046FFF7B2FF04460F4640EA0A0041EA1E
:100760000B0153465A46084313D0114653EA010081
:1007700019D0C8F140025046FFF7AEFF05460E46BD
:10078000504659464246FFF798FF084305D00120DE
:1007900004E020463946BDE8F08D0020054346EAD6
:1007A000E0762C4337430A986305E40AA0EB08007F
:1007B0000022FD0A44EA47540A3002D500200146CF
:1007C000E9E7010510196941DDE9084500196941AA
:1007D000BDE8F04DA2E7C1F30A52C1F3130140F2A4
:1007E000FF3341F480119A4202DA0020014670473B
:1007F00040F233439A42A2F2334202DC5242FFF704
:100800006BBFFFF75ABF000030B5041E71F1000442
:1008100004DB4FF00044404264EB0101141E73F10D
:10082000000405DB1C464FF00043524263EB040317
:10083000994208BF904230BD064C074D06E0E06883
:1008400040F0010394E8070098471034AC42F6D317
:10085000FFF79EFCF45800081459000870B58C1876
:1008600010F8015B15F0070301D110F8013B2A11C4
:1008700006D110F8012B03E010F8016B01F8016BB1
:100880005B1EF9D12B0705D40023521E0DD401F8AD
:10089000013BFAE710F8013BCB1A921C03E013F876
:1008A000015B01F8015B521EF9D5A142D8D30020AB
:1008B00070BD10B5FFF786FC04F02FFD002010BDC1
:1008C000002904D0816841F001018160704781688E
:1008D00021F001018160704710B5074C226807497B
:1008E0000A40D0E900131943D0E902300343194309
:1008F0001143216010BD000004230140E030FCFFE3
:10090000002904D0816841F480718160704781685A
:1009100021F4807181607047002904D0816841F41E
:10092000007181607047816821F4007181607047B7
:1009300030B542680F4B1A400C790B6842EA04222A
:100940001343436083680C4A1340D1E903422243B6
:100950004D798C6844EA450422431A438260C26A96
:1009600022F47002097D491EC9B242EA0151C162F6
:1009700030BD0000FFFEFFFCFDF7FFC070B507268D
:1009800009290AD9C568A1F10A0404EB4404A64068
:10099000B543A3401D43C56007E0056901EB410471
:1009A000A640B543A3401D4305611F23072A09D272
:1009B000446B521E02EB820293409C4391400C43D5
:1009C000446370BD0D2A09D2046BD21F02EB820270
:1009D00093409C4391400C43046370BDC46A0D3A3C
:1009E00002EB820293409C4391400C43C46270BD71
:1009F000816841F0804181607047000070B5044615
:100A000003F0EAFB0A4D0221284600F0A9F901286B
:100A10000AD1084A0021284600F094FA0548A04768
:100A20000221284600F0D2F8BDE8704003F0E8BB90
:100A3000006400407C03002070B503F0CDFB164C31
:100A400040F22551204601F08AFEB8B1204601F05F
:100A50001FFFC0B2114C6178114A002591B1217875
:100A60004B1C237050542078192807D30C491922A5
:100A7000A1F1FC0003F0E0FD65702570BDE8704059
:100A800003F0BEBB0F28F9D10121617025702178D8
:100A90004B1C23705054F1E7001401404800002023
:100AA000A004002030B587B00121042001F0C0FA75
:100AB0000121202001F0E6FA224D082207212846D4
:100AC00000F0EEFC08220621284600F0E9FCC021D7
:100AD000059102218DF8181000248DF81A4001228A
:100AE0008DF81B208DF8191005A9284600F09AFCF6
:100AF00015480190ADF808404FF40050ADF80A00D9
:100B0000C010ADF80C00ADF810400C20ADF80E0090
:100B10000E4C01A9204601F05DFE01F075FA01229C
:100B200040F22441204601F03AFE012240F22551D4
:100B3000204601F034FE0121204601F0FDFD07B002
:100B400030BD000000080240A086010000140140F2
:100B5000FEE700000148FFF751BF00009D3A000882
:100B600010B511A001F09EFE154C0221204600F0A8
:100B7000F7F8012813D1134A0021204600F0E2F9CA
:100B800010486FF0E06310494268DA4205D1027AFA
:100B9000042A02D1807A082802D00020087010BDF3
:100BA0000120087010BD0000BDF8C8EBC1CB434167
:100BB0004E32B5C4BDD3CAD5D6D0B6CFA3A10A0094
:100BC00000680040380100202400002030B50823D0
:100BD00010240422B1F5007F33D011DC20292AD063
:100BE00007DC012922D0042923D0082900D1C460C0
:100BF00030BD402921D0B1F5807FF9D1426030BDB0
:100C00000025B1F5004F20D008DCB1F5806F1AD077
:100C1000B1F5006FF3D18561426030BDB1F5803F21
:100C20000DD0B1F5003FF8D1446030BD0849816076
:100C300030BDC36030BD036130BD046130BD436071
:100C400030BD426030BD426030BD8561426030BD24
:100C50000101010010B50C4988420AD101214C065E
:100C6000204601F001FA2046BDE81040002101F0C5
:100C7000FBB901218C06204601F0F6F92046BDE8BB
:100C80001040002101F0F0B900640040F0B5827A14
:100C900001219140304C226842F0010222602E4D29
:100CA0001C352A688A432A602B4A067B0C322B4B60
:100CB000002E14D116688E4316604688C78846EA0F
:100CC0000746877A03EBC707C7F840660688878818
:100CD00046EA0746877A03EBC707C7F84466067BF0
:100CE000012E14D116680E4316604288068842EA27
:100CF0000642867A03EBC606C6F84026C288868876
:100D000042EA0642867A03EBC603C3F84426124A37
:100D1000C37A121D3BB113680B4313600E4A03895B
:100D2000143223B106E013688B431360F6E71368AF
:100D30008B4313600389012B02D113680B431360AB
:100D4000407B012802D1286808432860206820F0F1
:100D500001002060F0BD000000660040006000401F
:100D60000246002053690B425DD0B1F5807F4AD026
:100D700016DC082937D009DC01292CD002292ED015
:100D8000042950D1D068082100F0CCB910292ED008
:100D9000202930D0402946D11069102100F0C2B975
:100DA000B1F5004F3BD00CDCB1F5007F2FD0B1F591
:100DB000806F30D0B1F5006F35D19069702100F0AF
:100DC000B1B9B1F5803F1AD0B1F5003F2BD15068D1
:100DD000102100F0A7B99068134900F0A3B9D068BA
:100DE000032100F09FB9D068102100F09BB9106971
:100DF000032100F097B91069082100F093B95068F9
:100E0000082100F08FB99069012100F08BB9906939
:100E1000022100F087B99069042100F083B950687D
:100E2000042100F07FB9704701010100002A03D0BE
:100E300042690A434261704742698A43426170478E
:100E400010B50022036823F002030360036843F037
:100E5000010303604FF6FF7300E0521C4468E4078F
:100E600001D19A42F9D14268D2073ED08A79012A4B
:100E70003DD0026822F080020260CA79012A3BD08C
:100E8000026822F0400202600A7A012A39D0026820
:100E900022F0200202604A7A012A37D0026822F04A
:100EA000100202608A7A012A35D0026822F0080214
:100EB0000260CA7A012A33D0026822F0040202607A
:100EC0008A78CC78920742EA04620C7942EA0442BA
:100ED0004C79098842EA0452491E0A43C2610168FA
:100EE00021F001010160002120E0002010BD026816
:100EF00042F080020260C0E7026842F040020260F5
:100F0000C2E7026842F020020260C4E7026842F0D1
:100F100010020260C6E7026842F008020260C8E7F9
:100F2000026842F004020260CAE7491C4268D20724
:100F300001D09942F9D14068C00701D0002010BD0E
:100F4000012010BD10B500EB0113D3F8B04104F03F
:100F500004041472002C2CD0D3F8B041E40854607F
:100F600003F5D8731C6804F0020454725C6804F042
:100F70000F0494725C68240AD4749C68D4729C68D0
:100F8000240A14739C68240C54739C68240E947374
:100F9000DC68D473DC68240A1474DC68240C547490
:100FA000DB681B0E937449B1016941F020010161B6
:100FB00010BDD3F8B041640D1460D1E7C16841F0B1
:100FC0002001C16010BD00218171C17101724172A7
:100FD0008172C1728170C17003210171022141715E
:100FE00001210180704730B50246002093685B0103
:100FF0000AD49068000101D5012005E09068C00086
:1010000001D5022000E0042004283BD002EB0012AE
:10101000D2F8803103F00103C2F880310B7A93B328
:10102000D2F880414D681C434B7A43EAC5031C4308
:10103000C2F880418B7A03F00F038B7202F5C07205
:10104000536823F00F03536053688C7A2343536033
:10105000CB7A8C7B0D7B43EA04634C7B240444EA0B
:10106000052423439360CB7B8C7C43EA04634C7C54
:10107000097C240444EA01210B43D360116841F048
:101080000101116030BDFFE7D2F880314C7A234373
:101090000C8843EA4453C2F88031CBE70022002990
:1010A00004D0012906D002290BD107E08268184834
:1010B000024006E082681748024002E08268164853
:1010C00002401649501A8A4218D007DC92B16FF0DC
:1010D0008060101810D0022809D113E0B0F5007F0D
:1010E00012D00F4940180BD0B0F5003F0ED00020B1
:1010F000C0B270470220FBE70020F9E70020F7E7C5
:101100000020F5E70120F3E70120F1E70120EFE7F8
:1011100003000004000300080000031000010008A1
:101120000001FFF7024600200A4200D0012070476C
:101130000122064B8240002903D018681043186032
:1011400070471868904318607047000000740040B2
:1011500030B587B00121032000F06AFF0121480764
:1011600000F074FF1020059003208DF81800002473
:101170008DF81B408DF819008DF81A40164D05A901
:10118000284600F04FF92021059105A9284600F0D6
:1011900049F90120059005A9104800F043F92420E1
:1011A0000190029404944FF43060039001A9002050
:1011B00000F05AF801A9102000F056F80121002093
:1011C000FFF7B6FF01211020FFF7B2FF0121002039
:1011D00000F006F807B030BD0000024000040240F5
:1011E000064B9A148240002903D0186810431860F7
:1011F0007047186890431860704700000074004002
:1012000010B590B00121480500F012FF4FF060606A
:101210000190124802901248039040200490202030
:101220000590002006904FF4806107918900089195
:101230008900099189110A9149020B910C900E9035
:1012400003210D910F90074C01A9204600F064F88E
:101250000121204600F053F810B010BD207400406A
:101260003C2500208860024030B5084C236840F6D9
:10127000FE7282409343D1E900252A43D1E902510D
:101280000D432A4382401A43226030BD007400405F
:1012900010B50024FFF75CFF00F014F8074A084976
:1012A00032F8140000EB004041F82400641C202CAC
:1012B000F6D3BDE81040FFF7A3BF00008057000839
:1012C0003C2500203EB50121084600F0BFFE13205A
:1012D00001900020ADF80000ADF80800ADF8020064
:1012E0004FF080446946204601F02AF9202120462B
:1012F00001F01DF90121204601F0F2F83EBD002960
:1013000004D0016841F0010101607047016821F0DB
:10131000010101607047000030B50368124A1340B4
:10132000CC680A682243D1E905452C432243CC69A5
:1013300022430C6A22434C6A22438C6A22434C6B40
:1013400022438C6B22431A430260426922F0070356
:10135000D1E90B2422431A4342610A6942604A6878
:1013600082608968C16030BD3F801CF0704700001A
:101370001FB5684600F094FE01984FF47A72B0FBF6
:10138000F2F0401E4FF0E021B0F1807F01D3012048
:1013900008E04861084BF0201870002088610720A1
:1013A0000861002000B1FEE7486904494860B0FBCD
:1013B000F2F008701FBD000023ED00E05400002093
:1013C00070B54FF0E025AB6900210D4A1478444315
:1013D000A4B2B0F5C37F11D850680BE003D29B1ABA
:1013E000194489B203E0861A3344194489B213467A
:1013F000A14203D2AA699A42FCD0EFE770BD000077
:101400005400002010B5064C0146204601F044FA75
:101410008021204601F09CF90028F9D010BD000081
:10142000005000402DE9F041002201274FF0030C4D
:1014300007FA02F50B682B40AB422CD1066853002B
:101440000CFA03F4A64306600E79D0F800809E40A3
:1014500046EA080606600E79012E01D0022E12D14E
:101460008668A64386604E79D0F808809E4046EA9A
:10147000080686604668AE43466045688E799640A9
:10148000B6B235434560C568A543C560CC799C407C
:10149000C3681C43C460521C102AC9D3BDE8F08144
:1014A00010B54B07DB0E9A40C90800EB8100016ABA
:1014B0000F249C40A1430162016A1143016210BDE7
:1014C0000246002012690A4200D0012070470183C1
:1014D0007047002A01D001837047418370470000A4
:1014E0001CB50121084600F0A3FD01208DF8040081
:1014F00000208DF80600802100918DF80700022061
:101500008DF8050069460248FFF78CFF1CBD0000FE
:101510000000024010B570210E2000F053FF401C67
:1015200002D107A002F0B0FE01210F2000F04AFF17
:10153000401C04D1BDE8104007A002F0A5BE10BDBC
:10154000C5E4D6C352455345545F44524459B3F69B
:10155000B4EDA3A10A000000C5E4D6C34D45415334
:101560005552454D454E54B3F6B4EDA3A10A0000C3
:101570002DE9F0419CB001210E02304600F082FDC1
:101580000121042000F054FD0121880500F050FDE8
:1015900003208DF86C0000248DF86E401F201A90F7
:1015A0008DF86F4002208DF86D001AA93748FFF7BB
:1015B00039FF01218DF854108DF8551018941794A7
:1015C000169405278DF864704FF440701490DFF87E
:1015D000C08014A94046FFF7ABF91294109475022D
:1015E00011954FF47060139010A8FFF775F901235F
:1015F0001A460A214046FFF7C1F9012302220B21B6
:101600004046FFF7BBF9012303220C214046FFF7B8
:10161000B5F9012304220D214046FFF7AFF901235C
:1016200005220E214046FFF7A9F919484C300290D7
:101630000F94C01408900694164803900E94281135
:101640000990C01007900A96059704940C940D9485
:101650000B950194104C01A92046FFF75DFE012176
:101660002046FFF74CFE01214046FFF755F90121C6
:101670004046FFF745F901214046FFF721F9404672
:10168000FFF7B6F91CB0BDE8F08100000008024089
:10169000002001402C0100201064024010B500F031
:1016A00093F800F0E3F8BDE8104000F001B8000046
:1016B0002DE9FF4100248DF80A404CF2F877ADF88F
:1016C000007041F20408ADF802804FF6FF76ADF8E5
:1016D0000460ADF806608DF80B4001258DF80C50C4
:1016E000ADF808408DF80D506846FFF7CFFA8DF839
:1016F0000A50ADF80070ADF80280ADF80460ADF8A6
:1017000006608DF80B408DF80C50ADF808408DF850
:101710000D506846FFF7BAFA02208DF80A00ADF8BE
:1017200000704FF48670ADF80200ADF80460ADF8BB
:1017300006608DF80B408DF80C50ADF808408DF820
:101740000D506846FFF7A2FA03208DF80A00ADF8A5
:1017500000704FF4C670ADF80200ADF80460ADF84B
:1017600006608DF80B408DF80C50ADF808408DF8F0
:101770000D506846FFF78AFA04208DF80A0043F2FC
:101780000C00ADF8000043F21400ADF8020043F283
:101790001C00ADF8040043F22400ADF806008DF8FB
:1017A0000B508DF80C40ADF808408DF80D50684690
:1017B000FFF76CFA012202210248FFF737FBBDE870
:1017C000FF8100000064004070B586B0012108462A
:1017D00000F02EFC01214FF0C06000F037FC214EDC
:1017E00009220C213046FFF75BFE09220B2130460F
:1017F000FFF756FE02218DF8141000248DF81640D4
:101800004FF4C052049201258DF817508DF8151031
:1018100004A93046FFF706FE134E3046FFF71AFACA
:1018200001A8FFF7D0FB8DF806400A208DF80800CC
:101830008DF809508DF807400620ADF804008DF8AA
:101840000B508DF80C508DF80D408DF80E408DF832
:101850000A408DF80F4001A93046FFF7F1FA06B0B3
:1018600070BD0000000002400064004008B54FF465
:10187000E06000F0BFFB14208DF8000001208DF81F
:10188000030000208DF801008DF80200684600F08A
:101890007DFB08BD70B586B00121042000F0C8FBB7
:1018A0000121082000F0C4FB0121080500F0CEFB57
:1018B00002208DF8140000248DF81640C102049116
:1018C0008DF817408DF815001B4D04A92846FFF729
:1018D000A9FD04210491194E04A93046FFF7A2FD89
:1018E00008220C212846FFF7DBFD082202213046A2
:1018F000FFF7D6FD4FF4E1300090ADF80C400C201E
:10190000ADF80A00ADF80840ADF80640ADF8044067
:101910000B4C6946204600F05DFF00F013F80122F1
:1019200040F22551204600F03AFF0121204600F008
:1019300003FF06B070BD000000080240000C02402A
:101940000050004008B54FF4A06000F053FB352074
:101950008DF8000001208DF803008DF801008DF84E
:101960000200684600F012FB08BD00001CB5012112
:10197000192000F05DFB00208DF804008DF80600B2
:101980004FF4004100918DF8070002208DF805000A
:1019900069460948FFF746FD4FF49060009069469C
:1019A0000648FFF73FFD43F6027000906946044881
:1019B000FFF738FD1CBD000000000240001002408F
:1019C000000C02407CB50121022000F031FB012017
:1019D0008DF8040000208DF806004FF44074009448
:1019E0008DF8070002208DF80500054D6946284650
:1019F000FFF718FD012221462846FFF76AFD7CBD4E
:101A00000004024010B501216B2000F0D5F9401C04
:101A100002D119A002F038FC00216C2000F0CCF9B2
:101A2000401C02D11DA002F02FFC0921192000F05A
:101A3000C3F9401C02D122A002F026FC06211A2084
:101A400000F0BAF9401C02D126A002F01DFC1821BA
:101A50001B2000F0B1F9401C02D12AA002F014FCB6
:101A600018211C2000F0A8F9401C04D1BDE810404A
:101A70002EA002F009BC10BDD0B4C8EB4D505536B5
:101A80003035305F5057525F4D474D545F31BCC4C5
:101A9000B4E6C6F7CAA7B0DCA3A10A00D0B4C8EB6D
:101AA0004D5055363035305F5057525F4D474D548D
:101AB0005F32BCC4B4E6C6F7CAA7B0DCA3A10A0073
:101AC000D0B4C8EB4D5055363035305F534D504C87
:101AD00052545F444956BCC4B4E6C6F7CAA7B0DC4A
:101AE000A3A10A00D0B4C8EB4D5055363035305F55
:101AF000434F4E464947BCC4B4E6C6F7CAA7B0DC5C
:101B0000A3A10A00D0B4C8EB4D5055363035305F34
:101B10004759524F5F434F4E464947BCC4B4E6C68F
:101B2000F7CAA7B0DCA3A10A00000000D0B4C8EB3C
:101B30004D5055363035305F414343454C5F434F40
:101B40004E464947BCC4B4E6C6F7CAA7B0DCA3A159
:101B50000A00000008B54FF4A06000F04BFA1A200C
:101B60008DF8000001208DF803008DF801008DF83C
:101B70000200684600F00AFA08BD00002DE9FC41A9
:101B80000121042000F054FA0121084600F050FA27
:101B900001208DF8040003218DF805108DF8060052
:101BA0008DF80700440200940B4E69463046FFF75B
:101BB00039FC65100095094F69463846FFF732FC3D
:101BC000002229463846FFF784FC00222146304691
:101BD000FFF77FFCBDE8FC810008024000000240E6
:101BE0003EB50121880400F04DFA134C204600F068
:101BF00099FCFFF7AFFFA115ADF808100021ADF873
:101C000002106322019244F29F12ADF800208DF879
:101C10000A106946204600F093FC0121204600F09E
:101C200059FC01221146204600F072FC0121204699
:101C300000F056FC3EBD00000048014030B587B0C2
:101C40000121084600F0F4F90121102000F01AFAF1
:101C500002208DF8180000248DF81A404FF4C0615E
:101C6000059101218DF81B108DF81900174D05A95C
:101C70002846FFF7D7FB072209212846FFF710FC6B
:101C800007220A212846FFF70BFC4FF4E1300190B0
:101C9000ADF810400C20ADF80E00ADF80C40ADF8DA
:101CA0000A40ADF808400A4C01A9204600F092FD18
:101CB00000F010F8012240F22551204600F06FFD9F
:101CC0000121204600F038FD07B030BD0000024081
:101CD0000010014008B54FF4A06000F08BF92520FA
:101CE0008DF8000001208DF803008DF801008DF8BB
:101CF0000200684600F04AF908BD000070B586B0E1
:101D00000121084600F094F90121480400F09EF9F1
:101D100002208DF8140000248DF816400C2504953F
:101D20008DF817408DF81500174E04A93046FFF7BF
:101D300079FB072202213046FFF7B2FB072203217D
:101D40003046FFF7ADFB4FF4E1300090ADF80C40AA
:101D5000ADF80A50ADF80840ADF80640ADF80440C3
:101D60000A4C6946204600F035FD00F011F80122CA
:101D700040F22551204600F012FD0121204600F0DE
:101D8000DBFC06B070BD00000000024000440040D3
:101D900008B54FF4A06000F02DF926208DF8000062
:101DA00001208DF803008DF801008DF802006846CF
:101DB00000F0ECF808BD000070B505460C4600F0D8
:101DC000B7F8D02000F0A0F800F081F840B111A0E1
:101DD00002F05AFAD02118A002F056FAFF2070BD86
:101DE000284600F091F800F072F820B115A002F03A
:101DF0004BFAFF2070BD204600F086F800F067F82F
:101E000020B11EA002F040FAFF2070BD00F053F890
:101E100070BD0000D6B4D0D0D0B4C8EBB2D9D7F7DB
:101E2000A3AC4D50552D36303530CEB4B6D4C6E4C3
:101E3000D3A6B4F0A3A10A00B5D8D6B7CEAAA3BA48
:101E400025780A00D1A1D4F1B6D44D50552D3630A5
:101E50003530C4DABCC4B4E6C6F7B5D8D6B7B2D903
:101E6000D7F7CAA7B0DCA3AC4D50552D363035306E
:101E7000CEB4D3A6B4F0A3A10A000000D0B4C8EB3E
:101E80004D50552D36303530D6D0B8C3BCC4B4E62D
:101E9000C6F7B5C4CAFDBEDDD3D0CECACCE2A3AC72
:101EA0004D50552D36303530CEDEB7A8D3A6B4F020
:101EB000A3A10A00FEE710B5002000F057F80120AA
:101EC00000F046F8BDE81040012000F04FB810B512
:101ED000012000F04BF8012000F03AF800F006F87D
:101EE0000446002000F034F8204610BD10B54FF431
:101EF00000710448FFF7E4FA04461420FFF760FA83
:101F0000204610BD0008024070B50546002480261A
:101F100026FA04F0284000F029F8012000F018F813
:101F2000002000F015F8641CE4B2082CF0D370BD5A
:101F300010B5012000F01AF8012000F009F8002087
:101F400000F014F8BDE81040002000F001B80000D7
:101F500010B502464FF480710348FFF7BAFABDE8A6
:101F600010401420FFF72CBA0000024010B50246C2
:101F70004FF400710348FFF7ACFABDE8104014209D
:101F8000FFF71EBA000802407047000030B50F236B
:101F9000C27801250178002A1FD0154A126802F480
:101FA000E062C2F5E062C2F30722C2F10404D3404A
:101FB0004278A24084781C401443220101F1E021C0
:101FC00081F80024007800F01F018D404009800056
:101FD00000F1E020C0F8005130BD01F01F00854045
:101FE0004809800000F1E020C0F8805130BD0000B9
:101FF0000CED00E002490843024908607047000008
:102000000000FA050CED00E008B54FF4A060FFF702
:10201000F1FF47208DF8000001208DF801008DF8B8
:1020200002008DF803006846FFF7B0FF08BD00000E
:10203000054A002903D011680143116070471168F7
:10204000814311607047000030380240054A002982
:1020500003D011680143116070471168814311601A
:102060007047000040380240054A002903D011683B
:10207000014311607047116881431160704700008F
:1020800020380240054A002903D01168014311603D
:102090007047116881431160704700004438024066
:1020A00070B5244B196801F00C01234C00291ED097
:1020B000661004291DD008291DD00460196801F09C
:1020C000F00109091D4A545C0168E14041601C6847
:1020D00004F4E054A40A145D21FA04F484601B683B
:1020E00003F460435B0BD25CD140C16070BD0460FF
:1020F000E4E70660E2E70F4A121F1168C1F380555A
:10210000116801F03F0135B1B6FBF1F11468C4F379
:102110008814614305E0B4FBF1F11468C4F388143A
:1021200061431268C2F30142521C5200B1FBF2F14A
:102130000160C3E7083802400024F40014000020C6
:1021400010B5064C0146204600F0A6FB8021204633
:1021500000F0FEFA0028F9D010BD00000044004055
:10216000002904D0018841F04001018070470188B6
:1021700021F040010180704710B586B000F026F8CC
:102180000020ADF81000ADF804004FF48271ADF8F6
:102190000610ADF808000221ADF80A100121ADF8D3
:1021A0000C104902ADF80E10ADF812000720ADF882
:1021B0001400054C01A9204600F052F801212046E8
:1021C000FFF7CEFF06B010BD003800407CB50121FE
:1021D0008C032046FFF73AFF01210220FFF728FF7A
:1021E0001E4D05220C212846FFF75AF905220D2124
:1021F0002846FFF755F905220E212846FFF750F92A
:1022000005220F212846FFF74BF9601000900220AD
:102210008DF805008DF8040000208DF806008DF87B
:10222000070069462846FFF7FDF8009469462846EE
:10223000FFF7F8F86000009069462846FFF7F2F8CB
:10224000A410009401208DF8040069462846FFF789
:10225000E9F821462846FFF73AF97CBD0004024020
:1022600030B5028802F441530A884C88CD88224355
:102270008C882C4322430C8922434C8922438C892D
:102280002243CC8922431A430280828B22F40062CB
:102290008283098A018230BD704700000CB500229C
:1022A000019200922749086840F4803008604FF49A
:1022B000A043086800F4003000900198401C019091
:1022C000009810B901989842F3D10868800302D5AC
:1022D0000120009000E000920098012831D11948B7
:1022E0004030026842F0805202601748026842F4AF
:1022F000404202601348083002680260026842F4FB
:1023000000420260026842F4A0520260021F0F4BBA
:1023100013600A6842F080720A600A689201FCD574
:102320000B4A40F205711160016821F00301016060
:10233000016841F0020101600168C1F381010229D5
:10234000FAD10CBD0038024000700040085440072C
:10235000003C024010B501F03FFF02F0C9FEBDE8AD
:10236000104001F04DBF000010B51248016841F463
:10237000700101601048016841F0010101600E4ADE
:1023800000210832116002680C4B1A400260031DE4
:102390000B4A1A60026822F48022026006480C3060
:1023A0000160FFF77BFF03494FF000608039086050
:1023B00010BD000088ED00E000380240FFFFF6FE8F
:1023C0001030002470B505460C46FFF7B1FD8020A3
:1023D000FFF79AFDFFF77BFD20B10FA001F054FF3E
:1023E000FF2070BD2846FFF78FFDFFF770FD20B17D
:1023F00011A001F049FFFF2070BD2046FFF784FDCA
:10240000FFF765FD20B117A001F03EFFFF2070BD72
:10241000FFF751FD002070BDD6B4D0D0D0B4C8EBCA
:10242000B2D9D7F7A3AC5448CEB4B6D4C6E4CEB430
:10243000D3A6B4F0A3A10A00D1A1D4F1B6D45448D4
:10244000C4DABCC4B4E6C6F7B5D8D6B7B2D9D7F7A4
:10245000CAA7B0DCA3AC5448CEB4D3A6B4F0A3A1B1
:102460000A000000D0B4C8EB5448D6D0B8C3BCC4EE
:10247000B4E6C6F7B5C4CAFDBEDDD3D0CECACCE241
:10248000A3AC5448CEDEB7A8D3A6B4F0A3A10A00EB
:1024900010B50D4C0121204600F02EF8002812D076
:1024A0000A4A1168491C1160042906D9084A118892
:1024B000880402D041F4004010802046BDE810405E
:1024C000012100F00AB810BD004801405C00002066
:1024D0002A000020C94301827047C9430182704726
:1024E000002904D0018841F0010101807047018872
:1024F00021F001010180704702460020138A0B4041
:1025000092890A40002B02D0002A00D00120704797
:10251000002A03D082890A438281704782898A43D4
:1025200082817047018921F007010181704782880B
:1025300022F07002828082880A4382807047000005
:1025400030B50288164C174DA0420DD0A8420BD0D2
:10255000B0F1804F08D0144B984205D0134B9842ED
:1025600002D0134B984203D122F070034A881A43D9
:10257000104B984206D0104B984203D022F440737F
:102580000A891A4302804A68C2620A880285A04208
:1025900001D0A84201D1897A01860121818230BD12
:1025A0000000014000040140000400400008004019
:1025B000000C0040001000400014004070B50C4CAE
:1025C00040F225552946204600F0C9F800280DD0D4
:1025D000204600F05DF9074A1080074A012010707C
:1025E00029462046BDE8704000F09EB870BD00004E
:1025F000004C00404A0000202500002070B50D4E20
:1026000040F225552946304600F0A9F800280FD0A1
:10261000304600F03DF9084CC0B26070FFF790FD05
:102620000120207029463046BDE8704000F07CB89B
:1026300070BD0000005000402C0000202DE9F0414A
:10264000134F40F225563146384600F088F80028EE
:102650001CD0104C6088000412D40F48002505607F
:10266000384600F015F92146087062880B4BC2F31A
:102670000D015854521C90B26080C72800D9658063
:1026800031463846BDE8F04100F04EB8BDE8F08173
:1026900000100140280000205C0000204C010020B8
:1026A00070B50D4D40F225542146284600F057F8EC
:1026B000002810D0284600F0EBF8084A1080084A9D
:1026C00001211170C0B2FEF79DFE21462846BDE8EB
:1026D000704000F029B870BD004400404A0000205E
:1026E0002700002070B50C4C40F2255529462046A5
:1026F00000F035F800280DD0204600F0C9F8074A50
:102700001080074A0120107029462046BDE870401D
:1027100000F00AB870BD0000004800404A000020E8
:1027200026000020FEF788B940F66A120A0A012145
:102730009140C94301807047002904D0818941F448
:10274000005181817047818921F400518181704756
:102750000246002012880A4200D00120704770B55E
:10276000002440F66A12C1F3421301F01F0501264E
:1027700006FA05F2012B0CD0022B0DD0838A1340F0
:10278000090A8E40008830400BB100B10124204678
:1027900070BD83891340F3E7038A1340F0E710B557
:1027A00040F66A13C1F3421301F01F040121A14056
:1027B000012B07D0022B07D014303AB102680A432C
:1027C000026010BD0C30F8E71030F6E702688A436B
:1027D000026010BD7FB504460D46208A20F44051AA
:1027E000E88808432082A08941F20C618843A988C7
:1027F0002A8911436A8902431143A181A08A20F4E6
:102800004071A8890843A0826846FFF749FC1E482A
:10281000844202D01D48844201D1039800E002980E
:10282000A189090408D500EBC00101EB001029685B
:102830004900B0FBF1F007E000EBC00101EB001034
:1028400029688900B0FBF1F06422B0FBF2F10901C4
:102850000B096FF018056B4300EB8300A3891D047F
:102860004FF0320307D503EBC000B0FBF2F000F0ED
:102870000700084306E003EB0010B0FBF2F000F0A5
:102880000F00084320817FBD00100140001401406B
:102890008088C0F308007047C1F308018180704749
:1028A000FEE700000FB4054B10B503A9044A0298D7
:1028B00000F022F910BC5DF814FB0000853600081A
:1028C000280100207CB50C001D461646014601D0AB
:1028D000601E00E00020CDE90010064B6A46294644
:1028E000304600F009F9002C02D0009A0021117046
:1028F0007CBD0000C1320008002807D00F4910F04D
:10290000FF0F05D0C0B2085C401C70470020704724
:1029100010F47F4F04D0C0F30720085C09307047E3
:1029200010F47F0F04D0C0F30740085C11307047EB
:1029300001EB10600078193070470000C0570008A4
:1029400002E008C8121F08C1002AFAD17047704778
:10295000002001E001C1121F002AFBD170470000D6
:102960002DE9FF5F82B00021DDE90430020DDDF8C2
:1029700040B0034318D044F61050A2F2FF32424355
:102980001514119801281FD0A5EB0B00401C5FEA1D
:10299000000A4FF000064E4FDFF83891B04650461F
:1029A00015D5CAF1000413E0119801244AA30128A7
:1029B00001D16FEA0B010298119AC0E90031C0E918
:1029C000024206B0BDE8F09FCBF10000DFE704460D
:1029D0000021404A491842EB0450CDE9001012E0B2
:1029E000E00707D032463B4640464946FDF73DFDED
:1029F0008046894632463B4610461946FDF735FD6E
:102A000006460F466410002CEAD1DDE90401DDE939
:102A10000023BAF1000F06DAFDF727FD42464B46C8
:102A2000FDF723FD05E0FDF792FD42464B46FDF71D
:102A30008EFD04460E460022284BFDF7E5FE03D826
:102A40004FF0FF30014607E00022254B204631467B
:102A5000FDF764FCFDF7BFFE102409E0002C0ADB43
:102A60000A220023FDF7F8FD039B30321A55641E3D
:102A700050EA0102F2D1641C039AC4F11103144418
:102A8000119A012A03D0012208430DD10AE008431C
:102A900004D000204FF0110B119072E7A3EB0B054F
:102AA0006D1E0DE05B4504DD4FF0000205F10105F0
:102AB00004E003DA4FF00002A5F10105002AECD092
:102AC00002981199C0E90231C0E9004579E7000098
:102AD000000014400000F03F300000000000F04310
:102AE0000000E03F03480168814201D001207047A7
:102AF00000207047040100202DE9FF4F95B09A4651
:102B0000884606460025EEE1252877D10024274691
:102B1000F94A0121039400E0044316F8013F203BE9
:102B200001FA03F01042F7D130782A2811D06FF063
:102B30002F033078A0F13002092A16D8039A44F006
:102B4000020402EB820203EB42021044761C039063
:102B5000EFE758F8042B0392002A03DA504244F4BA
:102B60000054039044F00204761C30782E2816D1CD
:102B700016F8010F44F004042A280DD06FF02F023C
:102B80003078A0F13003092B09D807EB870302EB5B
:102B90004303C718761CF3E758F8047B761C30789B
:102BA0006C280FD006DC4C2817D068280DD06A2876
:102BB00014D104E0742810D07A280FD10DE044F429
:102BC00000140AE044F4801401E044F440147278E4
:102BD000824202D104F58014761C761C3078662877
:102BE0000BD013DC582877D009DC002875D0452895
:102BF000F6D04628F4D047281AD193E118E063288C
:102C000035D0642879D0652812D18BE1702873D033
:102C100008DC6728F1D069286FD06E280DD06F28A6
:102C200006D1ACE073282CD0752874D0782853D006
:102C30005246179990476D1C54E1C4F30250022884
:102C400009D003280DD0D8F8001004280DD00D604D
:102C500008F1040846E1D8F80010EA17C1E900526B
:102C6000F6E7D8F800100D80F2E70D70F0E718F8DD
:102C7000041B8DF8001000208DF80100EB460120A8
:102C800003E058F804BB4FF0FF3061074FF000013C
:102C900002D40DE009F101018946B9420FDA8145FC
:102CA000F8DB1BF809100029F4D108E009F1010153
:102CB00089468142FADB1BF809100029F6D10398F6
:102CC0005346A0EB090721463846179A00F080FAD0
:102CD000284400EB090507E044E008E10DE01BF89B
:102CE000010B524617999047B9F10109F7D25346A3
:102CF00021463846179AF2E039E00A21C4F302521D
:102D00004FF0000B0091022A06D058F8040BC117AF
:102D1000032A09D00AE023E008F1070020F00702A7
:102D2000F2E80201904605E000B2C117042A01D181
:102D300040B2C117002906DA0A460021404261EB81
:102D400002012D2202E0220504D52B228DF8042059
:102D5000012203E0E20701D02022F7E7914657E085
:102D60000A2100E010214FF0000B00910BE0102130
:102D70004FF0000B44F004040827009103E0082002
:102D80004FF0000B0090C4F30252022A05D058F80D
:102D9000040B0021032A08D008E008F1070020F006
:102DA0000702F2E80201904603E080B2042A00D153
:102DB000C0B24FF0000922072AD53278702A07D016
:102DC000DDF800C08CF0100C5CEA0B0C05D00EE0B6
:102DD00040228DF80420012208E050EA010306D0C9
:102DE00030238DF804308DF8052002229146009B97
:102DF00083F0080353EA0B030AD150EA010201D120
:102E0000620705D530228DF804204FF001097F1E9E
:102E10003278582A04D039A20C920CAA02920BE004
:102E20003BA2F9E75B46009AFDF716FC0C9B9B5C06
:102E3000029A521E0292137050EA0102F2D10298D5
:102E400004A9081A00F1200B600702D524F480348D
:102E500000E001275F4502DDA7EB0B0000E000204A
:102E600000EB0B01009003984944401A0390E003E3
:102E700006D453462146179A039800F0A9F9054451
:102E8000002706E001A85246C05D179990476D1CC7
:102E90007F1C4F45F6DBE0030CD553462146179ABD
:102EA000039800F095F9054404E030205246179944
:102EB00090476D1C0099481E00900029F5DC08E041
:102EC0000298029952460078491C0291179990473E
:102ED0006D1CBBF10001ABF1010BF1DC5BE100F01B
:102EE00065F90544761C307800287FF40DAE19B0E2
:102EF0002846BDE8F08F0000092801003031323348
:102F00003435363738396162636465660000000025
:102F1000303132333435363738394142434445460F
:102F200000000000600700D4062708F1070020F029
:102F30000700F0E80223804603F0004C5FEA0C0033
:102F400001D097A009E0200501D596A005E0E00793
:102F500001D095A001E0AFF24C001390307823F03F
:102F6000004365280CD006DC452809D046281DD032
:102F700047287FD13BE0662818D067287AD136E011
:102F80000021112F01DB112000E0781CCDE90001A8
:102F900004A90CA8FFF7E4FCDDE90D010C9A4FF041
:102FA000000B07F10109109200914EE04FF0004034
:102FB0000097CDE9011004A90CA8FFF7D1FCDDE9C9
:102FC0000D020C9B0F994FF0000B9146109300924D
:102FD00011B9791C00EB0109B7EB090003D4C0F16A
:102FE000FF3B07F10109A9EB0700019042E0012F27
:102FF00000DA01270021112F01DD112000E0384601
:10300000CDE9000104A90CA8FFF7AAFCDDE90D0138
:103010000C9A00914FF0000BB946109221070FD483
:10302000009A4A4503DA914601E0A9F10109B9F194
:10303000010F05DD109AA9F10101515C3029F4D08E
:10304000B84202DA10F1040F03DA0121CDE90110D0
:1030500010E0002803DC8344A9EB000102E0411CDE
:10306000494500DD8946A0EB0B00401C01904FF064
:1030700000400290200705D40198484502DB4FF03C
:10308000FF30019000208DF84B0002980DF14B07A6
:10309000B0F1004F25D002200C902B200D9002980B
:1030A00000280CDA404202902D200D9007E00A2102
:1030B0000298FDF7BBFA3031029007F8011D0C9918
:1030C000481E0C900029F2DC02980028EFD1791EEE
:1030D0000D980870307800F0200040F0450007F8A7
:1030E000020D11A8C01BC01D02901398007800B1FA
:1030F000012000EB0901019801EBE0710298014405
:103100000398401A401E0390E00306D4534621461C
:10311000179A039800F05CF805441398007818B1EA
:103120005246179990476D1CE00323D5534621461C
:10313000179A039800F04CF805441BE0BBF1000F10
:1031400007DB0098584504DD1098179910F80B001C
:1031500001E0179930205246904701980BF1010B7E
:10316000401E05F10105019004D12E205246179909
:1031700090476D1CB9F10001A9F10109DEDC05E001
:1031800017F8010B5246179990476D1C0299481E7B
:1031900002900029F4DC53462146179A03989EE6D4
:1031A0002D0000002B000000200000002DE9F04160
:1031B000044600251E461746880404D405E0394617
:1031C0002020B0476D1C641EF9D52846BDE8F0816B
:1031D0002DE9F041044600251E469046C80301D55E
:1031E000302700E02027880404D505E04146384612
:1031F000B0476D1C641EF9D52846BDE8F08100007B
:103200002DE9FC411F46DDE90A65DDE90831044688
:1032100004F11400406000601C346260A760E36049
:1032200021610A462321184601F039F9D4E9030146
:103230004218D4E90101121F0D4B00F0ADFF2060D0
:10324000A67666760020E061256265626061207680
:103250006065A0651C3C009001902346054A21460C
:1032600004F1440001F0BAFF0020BDE8FC81000039
:10327000214E00086550000810B5029C24F001049E
:103280004472C161026200218162436200EBC102AB
:10329000143252601260491C0129F7DB10BD10B5D1
:1032A000002200EBC2011431D1E900436360D1E98F
:1032B0000034236049600960521C012AF1DB10BD13
:1032C0004A68002A06D00A68531C0B6010704868D0
:1032D000401E4860704700F045B800002DE9FC41F1
:1032E00000254FF48076134ACDE90065102312A122
:1032F000A2F1680001F0F6F84FF0FF3810B1404637
:10330000BDE8FC810B480E4C683860600127A7605F
:10331000CDE900651023074A0AA1343001F0E2F834
:1033200008B14046ECE703483438E06027610020EC
:10333000E6E700007C02002063616E5F74780000A5
:103340003400002063616E5F7278000004480169F8
:10335000002902D0C068002800D10020704700007A
:10336000340000202DE9F04106460D4617460024A2
:1033700014211948FCF7C7FF174B5E600420187230
:1033800000265E729F72002004E01A18295CD17238
:10339000401CC0B2B842F8D3104F0F493846FDF771
:1033A00022FE0F4D287004280ED10020BDE8F081C8
:1033B000641C642001F012FD0A2C02DD2E70002036
:1033C000F4E708A000F060FF29783846FDF766FEB4
:1033D0000128EDD12E70E9E7900300200064004041
:1033E0003400002043414E315F5472616E736D6949
:1033F000742053746174756573206572726F7221E5
:10340000200A000094B001F06DFE06464FF0FF3731
:10341000534D544C4EE00DA910A800F0DDF860B1FA
:103420003946286801F0E9F90DA807C8C4E9071270
:10343000A061286801F098F93CE009A910A800F003
:10344000F5F870B13946286801F0D7F909A80C9948
:103450000DC8C4E90A2321636062286801F084F979
:1034600028E005AA404910A800F08EF860B139465E
:10347000286801F0C2F905A844340FC80FC4543CB1
:10348000286801F071F915E0374901AA103110A838
:1034900000F07AF870B13946286801F0AEF9DDE93C
:1034A0000130DDE90321C4E91530C4E9172128689A
:1034B00001F05AF90023102210A9686801F044F8BD
:1034C0000028A8D001F00EFE811B4FF47A72514300
:1034D000B1FBF2F164293FD306463946286801F072
:1034E0008CF904F134000FC8CDE90C01CDE90E23AD
:1034F00004F164000FC8CDE90801CDE90A23D4E93D
:103500001E12606F05AB07C3286801F02DF903A9EF
:103510000CA800F055FB082203A91448FFF7DBFEB6
:1035200003A90CA800F04CFB082203A91048FFF7E0
:10353000D2FE01A908A800F05DFB082201A90D48F0
:10354000FFF7C9FE01A905A800F06CFB0948082295
:1035500001A91038FFF7BFFE012001F03FFCA9E7E9
:103560004C000020BC2400202100FF180021FF187F
:103570000022FF181003FF18884201DA084670473E
:103580009042FCDD1046704770B504461546206831
:10359000884201D0002070BD002028606860A860CB
:1035A000E86001F09FFD2860012028716079687152
:1035B000A079A871207AE17940EA01206881A07A97
:1035C000617A40EA01202881207BE17A40EA0120EB
:1035D000A881012070BD000070B505460C46124957
:1035E0002868884201D0002070BD00202060606003
:1035F000A06001F077FD2060012020716879E07102
:10360000A87900F001006072E87900F00100A07272
:10361000287A00F001006071687A00F00100A07162
:10362000A87A2072012070BD1002FF1870B5044600
:103630000D4613492068884201D0002070BD00204B
:1036400028606860A860E86001F04CFD28600120F7
:103650002871A079617940EA0120E880207AE17937
:1036600040EA01202881A07A617A40EA012068813D
:10367000207BE17A40EA0120A881012070BD000092
:103680000002FF1838B504468DF800006946032093
:10369000ABBE204638BD0000A6B0002601250A209A
:1036A00001F09CFB01F01EFD0446F44F4FF0FF318A
:1036B000386801F0A2F81822F1491FA8FCF70AFEA9
:1036C000EF48D0E907238169CDE91D231C91D0E99A
:1036D0000B3CD0E90912CDE91A3CCDE91812D0E92A
:1036E000133CD0E91112CDE9163CCDE91412D0E912
:1036F0001623416D006ECDE91123109113903868A7
:1037000001F032F89DF8800040B14FF47A72204603
:103710001F9900F003FA08B1012700E000279DF887
:10372000740048B14FF4FA7220461C9900F0F6F983
:1037300010B14FF0010901E04FF000099DF854006D
:10374000259048B14FF4FA722046149900F0E6F93A
:1037500010B19DF85500E0B34FF0000A9DF8440009
:1037600028B14FF4FA722046109900F0D7F99DF86D
:1037700075000F909DF882800C960D960E960B9416
:10378000089609960A960794049605960696039459
:103790008DF812609DF8810008B18DF812505FEA33
:1037A000080005D09DF8120040F002008DF81200CC
:1037B0009DF8920028B19DF8120040F004008DF8A9
:1037C00012002FB19DF8120040F008008DF8120091
:1037D00000E035E09DF8830028B19DF8120040F02C
:1037E00010008DF812009DF8840028B19DF8120099
:1037F00040F020008DF812009DF855B08DF816B0FD
:103800009DF845008DF817009DF878008DF8180098
:103810004FF4FA72BDF95C005142FFF7ADFEADF80E
:1038200014000F9878B18DF830608DF831608DF804
:1038300020608DF821608DF810608DF811508AE0BD
:103840004FF0010A8AE7B8F1000F0DD08DF8306013
:103850008DF831608DF820608DF821608DF8106052
:1038600002208DF8110076E0BAF1000F1CD087B36A
:103870009DF8810068B38DF830508DF831508DF887
:1038800020508DF82150BDF88E00ADF83600ADF80F
:103890003800BDF89000ADF82600ADF828008DF88E
:1038A00010508DF8116056E08DF830608DF8316061
:1038B0008DF820608DF821608DF81060259820B17A
:1038C000BBF1000F01D0032000E004208DF81100AF
:1038D00041E0FFE7B9F1000F2DD002208DF8300054
:1038E0008DF820009DF87610C1B18DF83150BDF8EB
:1038F0006610ADF83610BDF86810ADF838108DF8C8
:103900002150BDF86A10ADF82610BDF86C10ADF866
:1039100028108DF810008DF811601CE08DF83160D2
:10392000ADF83660ADF838608DF82160ADF82660EE
:10393000ADF82860EDE753A000F0A6FC8DF83060EC
:103940008DF831608DF820608DF821608DF8106061
:1039500004208DF811009DF8320040F0030040F083
:10396000800040F040008DF8320064208DF8330074
:103970008DF834000196029600944FF4FA74674271
:10398000BDF9580022463946FFF7F6FDADF80400B0
:10399000BDF95A0022463946FFF7EEFDADF80600A4
:1039A000BDF9480022463946FFF7E6FDADF80800AC
:1039B000BDF94A0022463946FFF7DEFDADF80A00A0
:1039C0008DF813609DF8100020B1012805D0022861
:1039D00007D009E08DF8135006E002208DF813009F
:1039E00002E004208DF813009DF83100012805D174
:1039F0009DF8130040F080008DF813009DF8110031
:103A0000012806D002280BD0032810D0042815D096
:103A10001AE09DF8130040F008008DF8130013E041
:103A20009DF8130040F010008DF813000CE09DF895
:103A3000130040F020008DF8130005E09DF81300FE
:103A400040F040008DF813000C4C4FF0FF3120681F
:103A500000F0D3FE0BA90A488EC934308EC044381A
:103A60009DE80E00C0E91E23416703A964308EC99A
:103A70008EC0206800F078FE11E600004C000020A7
:103A8000BC24002073746F705F726561736F6E2069
:103A90003A206E6F6E65200A000000001FB5114CC1
:103AA000E168002901D11049E160E168002917D0DF
:103AB000002815D0017A042912D141680091827A38
:103AC000082A00D908228DF8042000F10B010DF11D
:103AD0000500FCF7FFFB10226946E06800F0EFFDEF
:103AE0001FBD0000340000204802002010B5014630
:103AF0004FF0FF331922044800F026FD08B10020E2
:103B000010BD012010BD0000A403002010B501F07D
:103B100037FC08B1012010BD002010BD002909D0DC
:103B2000401A4FF47A714843B0FBF1F0904203D24F
:103B300001207047002070470020704710B506A094
:103B400000F0A2FB0AA000F07FFA01F081FDFDF772
:103B500039FF002010BD00000D0A2041474D4F20C5
:103B60005354415254204D41494E0D0A000000006B
:103B70000A41474D4F0A000010B500F0BBF8BDE800
:103B80001040FFF7DBBF2DE9F04716461F464518EA
:103B9000441A4FF4FA78C8F10009424649462846CB
:103BA000FFF7EAFC0546424649462046FFF7E4FC9B
:103BB00035803880BDE8F087030A0B7010707047BD
:103BC00070B505460C46002626606660A879207010
:103BD000B5F90C00A21C611CFFF7EEFF287AE0701B
:103BE000B5F90A00621D211DFFF7E6FFE879A07113
:103BF000E67170BD70B505460C460026266066600D
:103C0000B5F90800621C2146FFF7D6FFA87AA0701C
:103C1000E87AE070A8792071E8796071287BA0715A
:103C2000E67170BD00220A604A608288120A0A703A
:103C300002794A70C288120A8A708279CA7002892F
:103C4000120A0A71027A4A714289120A8A71807ACA
:103C5000C8717047FEF790BA30B5134C41682268BE
:103C6000114402F1080388420DD04D885DB96568A2
:103C7000A94208D0A5688D4200D1A0604D6845607A
:103C80004968851ACD508168114481420BD04D8816
:103C9000002D08D1A568854200D1A16044684C6020
:103CA0004068891AC15030BD700000201CB5142036
:103CB0000A21CDE900104FF400730022034904A04B
:103CC00001F066F8BDE81C4001F098B9793B0008A6
:103CD0006D61696E0000000070B5044C044D02E097
:103CE00020688047241DAC42FAD370BDE858000814
:103CF000EC58000870B5044C044D02E02068804781
:103D0000241DAC42FAD370BDEC580008F0580008EE
:103D100070B5084D2E6800F027F8044644B12868B5
:103D200008B100F009F84321204600F045F82C6066
:103D3000304670BD6800002010B504460020A17E0A
:103D4000002904D0491EC9B2A17619B110BD4FF0A7
:103D5000FF3010BDE16A09B12046884708B1811DD6
:103D6000F7D10021218310BD2DE9F041074601F074
:103D70001FF908B100F08AF8082000F0DFFD446860
:103D8000051D08E0A4F10C0608223946304600F073
:103D900013FF50B12468AC42F4D101F009F908B125
:103DA00000F082F80020BDE8F08101F001F908B1CF
:103DB00000F07AF83046F6E770B504460E46002566
:103DC000A07DC00610D4616A51B1204688470546DF
:103DD00035B12A46214614A000F056FA284670BD97
:103DE000E08A40F01000E082A07D000705D5207E2B
:103DF000000702D56FF0060070BDA26A22B13146FD
:103E000020469047054603E040F60F7006402683A3
:103E10000DB1A81D06D1208B40F008002083A07EA4
:103E2000401CA076284670BD546F20696E69746985
:103E3000616C697A65206465766963653A257320EB
:103E40006661696C65642E20546865206572726FC6
:103E50007220636F64652069732025640A00000086
:103E600010B5847E002C05D0446B4CB1A446BDE84F
:103E7000104060474FF0FF3000F08CFE002010BD76
:103E80006FF0050000F086FE002010BD10B5FCF7B5
:103E900099F9044A5188491C5180BDE81040FCF74B
:103EA00095B90000F800002010B5FCF78BF9094A1D
:103EB0005188491E09B25180002907DC0021518038
:103EC000FCF784F9BDE8104000F070BDBDE810407B
:103ED000FCF77CB9F800002070B5002833D01A4DEB
:103EE000296888422FD3696888422CD2A0F10C043B
:103EF0004FF0FF31154800F016FE60884FF4F5567C
:103F000010B12088B04208D011A000F0BDF923887C
:103F10006288214615A000F0B7F900206080268055
:103F2000A868844200D2AC6029686068611A401AAF
:103F30002969081A28612046FFF78EFEBDE8704007
:103F4000024800F0D0BD70BD70000020B4270020F2
:103F5000746F20667265652061206261642064610F
:103F6000746120626C6F636B3A0A00006D656D3A94
:103F7000203078253038782C207573656420666C85
:103F800061673A2025642C206D6167696320636F47
:103F900064653A203078253034780A00004870474C
:103FA000BC04002000487047BC24002010B5224803
:103FB0004FF47A710068B0FBF1F0401EB0F1807FE1
:103FC00009D24FF0E02148611C4AF0201070002017
:103FD000886107200861FDF7CBF9FDF7F3FCFDF7D9
:103FE0008DFEFDF7FDFDFDF729FEFDF7C7FDFDF791
:103FF00009FDFDF707FDFDF78DFAFDF74FFBFCF717
:1040000051FDFFF727FEFDF745FCFDF769FAFDF7C7
:10401000ADFCFDF7ADFAFDF73BF9FFF75DFE08A03B
:10402000FFF776FEFFF7BEFF0446FFF7B7FF214616
:10403000BDE8104000F0E4BD0000002023ED00E0EA
:10404000756172743200000070B50446FFF71EFF00
:104050000F4D16E00A2809D10D212846FEF71CFC59
:1040600080212846FEF774FB0028F9D014F8011BC4
:104070002846FEF711FC80212846FEF769FB002840
:10408000F9D020780028E5D1BDE87040FFF70CBFDB
:104090000044004010B5044617480168002903D0C9
:1040A00020468847002826D014A0E16900F0ECF8EB
:1040B00016A0A16900F0E8F818A0616900F0E4F822
:1040C0001AA0216900F0E0F81CA0E16800F0DCF81B
:1040D0001EA0A16800F0D8F820A0616800F0D4F814
:1040E00022A0216800F0D0F800F062FF014623A072
:1040F00000F0CAF8FEE710BD180100207073723A94
:10410000203078253038780A000000002070633AAB
:10411000203078253038780A00000000206C723A90
:10412000203078253038780A000000007231323AA9
:10413000203078253038780A000000007230333A99
:10414000203078253038780A000000007230323A8A
:10415000203078253038780A000000007230313A7B
:10416000203078253038780A000000007230303A6C
:10417000203078253038780A0000000068617264C9
:10418000206661756C74206F6E207468726561645E
:104190003A2025730A00000070B50646121D22F071
:1041A0000700A0F14405284600220A4C40F82240AE
:1041B000521C112AFAD3416200218162C16201635B
:1041C00041638363C6634FF08072026401602846D6
:1041D00070BD0000EFBEADDE10B5FBF7F3FF044A83
:1041E0001178491C1170BDE81040FBF7EFBF0000CB
:1041F000640000200148007870470000640000203F
:1042000010B5FBF7DFFF044A1178491E1170BDE8B5
:104210001040FBF7DBBF00006400002010B5006811
:10422000143800F0A7FE002010BD2DE9F04105462E
:104230000E461446304600F0F4FE06F1140714B1A1
:10424000012C1DD104E03946284600F058F817E04B
:104250002C680DE0A4F1140096F8351090F8352084
:10426000914204D23946143000F049F802E0246843
:10427000AC42EFD1AC4203D13946284600F03FF8BA
:104280000020BDE8F08100000FB438B505AB009305
:104290007F210E48049AFEF715FB03467F2B00D9B9
:1042A0007F230B4D286860B1048B44F040010183EB
:1042B000064A0021FFF7D4FD2868048338BC5DF866
:1042C00014FB0248FFF7C0FEF8E700003427002087
:1042D000680000200268516002680A60016048605E
:1042E00070470268516002680A6001604860704768
:1042F0000268516002680A60016048607047426865
:10430000116042684A6041600860704701688142FC
:1043100001D101207047002070470168814201D11E
:104320000120704700207047D0E900215160D0E99A
:1043300000121160406000607047D0E900215160B8
:10434000D0E9001211604060006070472DE9F0472D
:10435000002809D0C01C20F003053B4EF0688542C0
:1043600004D90020BDE8F0870020FBE70C2D00D227
:104370000C254FF0FF31354800F0D5FBB7683168A8
:10438000781AD6F80CC0ACEB050356E00C1862881E
:104390008ABB6268121A0C3AAA424DD3626805F1D0
:1043A0001803121A0C3A4FF001094FF4F5589A42CB
:1043B00022D343190C33CA18A2F800804FF0000A28
:1043C000A2F802A0D4F804A0C2F804A09060636030
:1043D000A4F8029050680CF10C0C604502D001F179
:1043E00008028350306928440C303061726982427F
:1043F0000ED270610CE01FE0A4F802906068621AAF
:10440000801A3269104430617269824200D2706150
:10441000A4F80080BC4203D008E040680844B060C3
:10442000B068428812B172689042F6D1074800F035
:104430005AFB04F10C0095E760688342A6D8034854
:1044400000F051FB00208DE770000020B427002011
:1044500030B50346102A1ED301F0030403F0030510
:104460002C430BD017E00C681C604C685C608C68B7
:104470009C60CC681031DC601033103A102AF2D204
:1044800002E010C910C3121F042AFAD203E011F887
:10449000014B03F8014B521E541CF8D130BD10B52E
:1044A0000346CCB2042A15D3810713D1014644EA4E
:1044B000042343EA034305E00B604B608B60CB6051
:1044C0001031103A102AF7D201E008C1121F042A55
:1044D000FBD20B46E1B201E003F8011B521E541C53
:1044E000FAD110BD2DE9F0410446DDE90668174612
:1044F0001D460A460521204600F032FA84F809805C
:104500002046143040600060E761ED1C4FF6FC70FF
:10451000054025842D1DB6FBF5F060840022A262C3
:10452000E2622263002008E0218CE369091D00FBA0
:104530000131236B0B602163401C618C8142F3DCF1
:10454000A2840020BDE8F0812DE9FF5F044691467A
:10455000002600F02DFD0546FBF734FE0746A08C33
:104560006FF0010B08B9039810B14FF0000840E05C
:104570003846FBF72BFE584604B0BDE8F09FC5F85F
:1045800030800398F0B1627A294604F11400FFF7F5
:104590004CFE039800280CDD00F0A4FD064605F152
:1045A000440003AA0021824600F0EEFD504600F0D0
:1045B0002BFE3846FBF70AFE00F0F8F9286B40B1F5
:1045C000286BD9E73846FBF701FE5846C5F830B0EE
:1045D000D2E7FBF7F7FD07460398002809DD00F056
:1045E00081FD861B0398801B0390002801DACDF81B
:1045F0000C80A08C0028C2D0A56A2868A062E06A5E
:10460000A84201D1C4F82C80A08C401EA08438465A
:10461000FBF7DCFD208C484500D281464A46291D27
:104620000198FFF715FFFBF7CDFD216B296025638E
:10463000FBF7CCFD00209FE72DE9F04104460F4633
:104640001646208CB04203D24FF0FF30BDE8F08117
:10465000FBF7B8FD256BA5B129682163FBF7B6FD13
:104660000020286032463946281DFFF7F1FEFBF78F
:10467000A9FD0646E06A00B10560E562A06A28B1BE
:1046800005E0FBF7A3FD6FF00200DFE7A562A08C59
:10469000401CA08404F114000446FFF737FE20B14B
:1046A0003046FBF793FD0020D0E72046FFF7B6FD2C
:1046B0003046FBF78BFD00F079F90020C6E72DE9C5
:1046C000F04104460F461646208CB04203D24FF00C
:1046D000FF30BDE8F081FBF775FD256B8DB12968D2
:1046E0002163FBF773FD32463946281DFFF7B0FE04
:1046F000FBF768FD0646A06A2860A562E06A28B15B
:1047000005E0FBF763FD6FF00200E2E7E562A08CD5
:10471000401CA08404F114000446FFF7F7FD20B10B
:104720003046FBF753FD0020D3E72046FFF776FD28
:104730003046FBF74BFD00F039F90020C9E710B512
:104740000C460146022000F0B4F800280BD000F11E
:104750001401496009600121818300210162FF2267
:104760008277C177447210BD2DE9F04104460025DF
:1047700000F01EFC0646FBF725FD0746206AB04206
:1047800007D06C1E34633846FBF720FD2046BDE899
:10479000F081E17F491EC9B2E177B1B9A17F90F8FC
:1047A0003520914204D004F11E02022100F0BBFA30
:1047B00004F114000646FFF7A9FD60B1A08B401C70
:1047C000A08300202062FF20A0773846FBF7FEFC84
:1047D000012D0ED00FE060691438206290F835008A
:1047E000A077E07F401CE0773046FFF717FD0125FA
:1047F000EBE700F0DBF80020C9E72DE9F3410446C0
:1048000000F0D6FB0546FBF7DDFC064600202863DA
:10481000206AA84203D1E07F401CE07744E0A08BEF
:1048200050B1A08B401EA083256295F83500A0777B
:10483000E07F401CE07737E0019850B3206A95F89C
:10484000351090F83520914204D205F1350202214D
:1048500000F069FA627A294604F11400FFF7E5FCDA
:104860000198002809DD05F1440001AA002107464E
:1048700000F08AFC384600F0C7FC3046FBF7A6FC87
:1048800000F094F8286B60B10930C8D0286BBDE8FF
:10489000FC816FF001042C633046FBF797FC204647
:1048A000F5E7FBF78FFC06463046FBF78FFC002050
:1048B000EDE72DE9F04106460F46304600F03EF8A0
:1048C0000546E868FFF742FD0446ACB126720020B9
:1048D000607208223946204600F07EF9FBF772FC30
:1048E000064604F10C01281DFFF7F4FC3046FBF7E7
:1048F0006DFC2046BDE8F0810020FBE770B5044662
:10490000FBF760FC054604F10C00FFF70DFD28469F
:10491000FBF75CFC2046BDE87040FFF7DDBA70B5E0
:104920000446FBF74FFC054604F10C00FFF7FCFCC6
:104930002846BDE87040FBF749BC00000021074A4B
:1049400002EB01131B78834202D102EB0110704786
:10495000491C0729F4DB0020704700008800002074
:104960002DE9F04104460D4617462846FFF7E6FFBD
:10497000064645F08000207208223946204600F0A5
:104980002BF9FBF71FFC054604F10C01301DFFF766
:10499000A1FC2846BDE8F041FBF718BC007A0006F0
:1049A00001D50120704700207047000070B5FBF76B
:1049B00009FC0546174C608820B12846BDE87040C8
:1049C000FBF704BCA068FDF797FF421E124850F8A1
:1049D000321014396068814216D0227061600F4A2B
:1049E000127842B11C311C30FBF7F3FB2846BDE8BE
:1049F0007040FBF7EBBB1C311C30FBF7EAFB284691
:104A0000BDE87040FBF7E2BB2846BDE87040FBF70D
:104A1000DDBB0000F8000020D42700206400002047
:104A200010B50446FBF7CEFB024614F8340F20F015
:104A30000F00401C207060780A49343C01EBC00133
:104A400004F114004B6818604B68436048600160D3
:104A50000548A16B836819438160BDE8104010468A
:104A6000FBF7B4BBD4270020F800002070B5054642
:104A7000FBF7A8FB014605F11404D4E900205060BF
:104A8000D4E9000210606460246095F835000A4A99
:104A900002EBC0000268824201D1012000E0002048
:104AA00020B10648AB6B82689A438260BDE87040D3
:104AB0000846FBF78BBB0000D4270020F80000203D
:104AC0002DE9F041054616461F460A4601212846B3
:104AD000FFF746FF2C46143464602460AE836F7287
:104AE0000020BDE8F0812DE9F04104460025FBF7E8
:104AF00069FB064604F114000746FFF707FC40B1C6
:104B0000A08B401CA0833046FBF760FB012D05D035
:104B100006E03846FFF782FB0125F4E7FFF746FF82
:104B20000020BDE8F08173B50446FBF74BFB064659
:104B3000A08B28B1401EA0833046FBF747FB21E045
:104B4000019808B300F034FA054600202863627A21
:104B5000294604F11400FFF768FB0198002809DDDD
:104B600005F1440001AA0021044600F00DFB204697
:104B700000F04AFB3046FBF729FBFFF717FF286BD5
:104B8000002800D100207CBD3046FBF71FFB6FF0F2
:104B900001007CBD70B50446FFF72CFB054D08B144
:104BA0006C6070BD00F004FA08B1046370BD6C6005
:104BB00070BD00006800002010B5002308E011F867
:104BC000013B0478E31A5BB223B9401C14B1521EB6
:104BD000002AF4D1184610BD10B5002A07D00346AC
:104BE00011F8014B03F8014B14B1521EF8D110BD5E
:104BF000002101E003F8011B521EFBD110BD000093
:104C000070B505460A46E81C20F0030122F00303B4
:104C1000182B21D9A3F118048C421DD3114C5A1A18
:104C2000183AE26021604FF4F5530B800C324A6071
:104C30000020886048804868084460600380012143
:104C40004180426082600023012207A10848FFF7EB
:104C500037FF2068A06070BD2946BDE8704005A000
:104C6000FFF712BB70000020686561700000000053
:104C7000B42700206D656D20696E69742C20657203
:104C8000726F7220626567696E2061646472657319
:104C90007320307825782C20616E6420656E642046
:104CA0006164647265737320307825780A000000AF
:104CB00010B50A4B00245C800020094A02EBC001B9
:104CC00049600960401C2028F8DB1F2018705C60D8
:104CD0009C6002480C304060006010BDF80000206D
:104CE000D427002010B5074CA068FDF705FE401E34
:104CF000054951F8300014386060BDE810401C30A0
:104D0000FBF7ADBAF8000020D42700200020044AA9
:104D100002EBC00149600960401C0028F8D07047D0
:104D20001001002070472DE9F04104461546002986
:104D300024D0012927D0022911D1FBF743FA0746D5
:104D400094F83400012600F00F0001280AD02878DA
:104D500084F835008640A6633846FBF737FA002012
:104D6000BDE8F0812046FFF781FE287884F8350001
:104D70008640A6632046FFF753FEEDE72046BDE8D8
:104D8000F04100F03BB92046BDE8F04100F028B802
:104D90002DE9FF478046DDE90C67894692461D46AE
:104DA00041460020FFF785FD044620000FD028462D
:104DB000FFF7CCFA68B18DE8E10053464A46414618
:104DC0002046FEF71DFA204604B0BDE8F08700201B
:104DD000FAE72046FFF792FD0020F5E700F0EEB875
:104DE00070B5044694F83400000702D02046FFF75F
:104DF0003DFE04F1440000F0E1F9042084F83400A1
:104E0000FBF7E0F9054604F114010448FFF769FADD
:104E10002846FBF7DBF9002070BD000004010020EC
:104E200070B513480468FBF7CDF905462046FFF737
:104E30001DFE042084F8340004F1440000F0BEF9A3
:104E40002046FFF7ABFD012801D1206F58B104F1D6
:104E500014010848FFF745FA2846FBF7B7F9BDE803
:104E60007040FFF7A3BD2046FFF759FDF4E70000AF
:104E7000FC0000200401002000F002F8FCE7000024
:104E800070B527E0FBF79EF90646FDF72BFE68B3E9
:104E900019480468A4F11405D4E900104860D4E965
:104EA0000001086064602460FEF7F0FF296F09B11B
:104EB000284688472846FFF771FD01280FD0FEF7E6
:104EC000F3FF3046FBF782F9A86AFFF705F828469A
:104ED000FFF714FDFDF706FE0028D3D170BDFEF7E5
:104EE000E3FF3046BDE87040FBF770B93046BDE8DF
:104EF0007040FBF76BB90000040100201FB52020B3
:104F0000C2001F21094BCDE90210CDE9003207484C
:104F10000023074A07A1783800F010F804B00348CE
:104F2000BDE81040783800F069B800003426002051
:104F3000794E00087469646C650000002DE9FF5F1C
:104F40008146DDE90E76DDE91054884692469B469F
:104F5000424600214846FFF703FDCDE90076CDE942
:104F600002545B46524641464846FEF749F904B0B2
:104F7000BDE8F09F70B5044694F8340000F00F00CF
:104F8000022802D04FF0FF3070BDFBF71BF9054639
:104F900004F11400FFF7D1F904F1440000F09EF988
:104FA0002846FBF713F92046FFF73AFD002070BDB5
:104FB0000148006870470000FC000020F1B5FBF7D5
:104FC00001F905460C480468204600F02AF804F16F
:104FD00044006A460021064600F0D6F8304600F04C
:104FE00013F92846FBF7F2F8FFF7E0FC206B801C72
:104FF00000D120630020F8BDFC00002010B5343043
:105000008178417001228A404260022100F83419FF
:10501000FFF7B0FFFFF7CCFF08B1FFF7C7FC002098
:1050200010BD70B5044694F8340000F00F0001285C
:1050300002D04FF0FF3070BDFBF7C4F8054694F87E
:10504000340020F00F00801C84F834002046FFF765
:105050000DFD04F1440000F041F92846FBF7B6F8D5
:10506000002070BD10B504466FF00100206304F10C
:105070001400FFF762F92046FFF7D2FCBDE81040AC
:10508000FFF794BC70B5FBF79DF80646134804681B
:1050900094F8340000F00F0001281AD1D4E905017A
:1050A000884216D004F114000546FFF746F994F83B
:1050B00035000B4901EBC00041680D604168696033
:1050C000456028603046FBF781F8FFF76FFC002051
:1050D00070BD3046FBF77AF8002070BDFC00002060
:1050E000D4270020014800687047000060000020BD
:1050F00010B509490868401C0860FFF759FF016CAA
:10510000491E016419B9C16B0164FFF7BBFFBDE81B
:10511000104000F003B800006000002070B5FFF7F9
:10512000E1FF0646FBF74EF8054620E01548046807
:10513000143C6FF00041A06A301A88421CD220460D
:10514000FEF7ADF8D4E907108847FFF7CBFF064616
:10515000607A810708D5C10706D020F0010060728F
:10516000204600F051F802E020F00100607205488E
:10517000FFF7D3F80028D9D02846BDE87040FBF7E8
:1051800025B8000010010020002909D0012904D011
:10519000022908D003290FD10AE0406A10600BE011
:1051A0001168416208E0417A21F00201417203E096
:1051B000417A41F0020141720020704770B5054606
:1051C000FBF700F804462846FEF769F82046FAF790
:1051D000FDFF2846FFF7A3FB002070BD2DE9F84333
:1051E0000746DDE9088415461E460A460921384669
:1051F000FFF7B6FB43463246294638460094FEF791
:105200003BF8BDE8F88300002DE9F8430446FAF7BF
:10521000D9FF05462046FEF742F8607A20F00100EB
:1052200060722846FAF7D2FFFFF75CFF616A084414
:10523000A062FAF7C7FF0746DFF89CC0CDF800C0B0
:1052400000226E460CEBC20045680DE00068A0EB42
:10525000C201A36A4969994204D0C91A6FF0004398
:10526000994205D346F8220056F82200A842EDD113
:105270002AB156F822100831531C46F82310521C4C
:10528000002ADFD01448001FD0F8008008F1010880
:10529000C0F8008004F114010098FFF729F80225F6
:1052A0000EE05FEA88700DD1C5F1010004EBC0018A
:1052B000143156F82000FFF71BF84FEA98086D1CD0
:1052C000012DEED9607A40F0010060723846FAF79D
:1052D0007DFF0020BDE8F8831001002070B5044672
:1052E000607AC0070ED0FAF76DFF05462046FDF73D
:1052F000D6FF2846FAF76AFF607A20F00100607254
:10530000002070BD4FF0FF3070BD002070470020BE
:105310007047002070470020704710B5FAF752FF21
:10532000FEF744FEFFF7F2FCFFF7C2FCFEF7BEFCFF
:10533000FFF7F8FCFFF7E2FDFFF7D4FC002010BDFB
:1053400070B50C4600F05EF905462246611C284601
:10535000FEF732FC284670BD70B50C461546002895
:105360000CD05CB155B14BB12146FEF7CFFB94F8A0
:105370005210002901D10121297070BD002070BD9B
:10538000002805D021B102780F2A03D000207047F1
:1053900000207047027E1AB1042A01D00020704715
:1053A000C27D22B1002081F8520001207047012205
:1053B000323181F820204278837842EA0322C2F316
:1053C0000A020A808278C378D20842EA4312C2F302
:1053D0000A024A80C2780379920942EA8302437939
:1053E00042EA8322C2F30A028A8042798379520810
:1053F00042EAC312C2F30A02CA808279C37912094F
:1054000042EA0312C2F30A020A81C279037AD2097C
:1054100042EA4302437A42EA4322C2F30A024A8141
:10542000427A837A920842EA8312C2F30A028A819C
:10543000827AC37A520942EAC302CA81027B437B61
:1054400042EA0322C2F30A020A82427B837BD20829
:1054500042EA4312C2F30A024A82827BC37B920968
:1054600042EA8302037C42EA8322C2F30A028A826E
:10547000027C437C520842EAC312C2F30A02CA8287
:10548000427C837C120942EA0312C2F30A020A83B5
:10549000827CC37CD20942EA4302037D42EA432272
:1054A000C2F30A024A83027D437D920842EA8312D4
:1054B000C2F30A028A83427D807D520942EAC0001B
:1054C000C88372E7FEF712BB1CB50020C821CDE9E6
:1054D0000010064A192306A1A2F13400FFF702F8D2
:1054E00010B14FF0FF301CBD00201CBDD8030020C0
:1054F000736275735F727800A8B0002426942794B5
:1055000025944FF47A75089407941EA8FFF7DAFFE4
:10551000F8B107AB08AA09A91EA8FFF71DFF0028CC
:10552000F1D0182101A8FAF7EEFEFFF7DBFD01909C
:105530009DF820009DF81C10014381F001018DF8B9
:1055400008108DF81A00BDF85E00A84205D90120A8
:1055500004E00520FFF742FCD5E700208DF80B00A2
:10556000BDF86000A84201D9012000E000208DF8BC
:105570000C00BDF86400A84201D9012000E0002021
:105580008DF80A00BDF86600A84201D9012000E0AC
:1055900000208DF80900BDF9560025A9FFF7D0FEBF
:1055A000ADF80E00BDF9580025A9FFF7C9FEADF80A
:1055B0001000BDF95A0025A9FFF7C2FEADF8120090
:1055C000BDF95C0025A9FFF7BBFEADF8140006ABE2
:1055D000BDF90E10BDF912009A1EFEF7D4FA074E5F
:1055E0004FF0FF313068FFF708F9182201A904488D
:1055F000FAF770FE3068FFF7B7F884E74C00002038
:10560000BC24002010B54FF4D6624FF48871FDF72A
:10561000B3FF00B2A0F2D731132901D2002010BD90
:105620004FF43471B0F5787F08DBA0F578704FF453
:10563000FA72504390FBF1F000B210BDC0F57870E3
:105640004FF4FA72504390FBF1F0404200B210BDAB
:105650007CB500212FA0FFF772F8304C20604FF08E
:10566000FF3538B1FDF73AFE30B12DA0FEF70CFE44
:1056700068007CBD28467CBDFFF726FF28B12DA021
:10568000FEF702FE6FF002007CBDFDF75FFE60607A
:10569000002838D029462068FFF7AFF880212A4833
:1056A000FAF731FE28490020383148700870206828
:1056B000FFF75AF80A241220CDE900044FF40065E0
:1056C0002B460022214922A0FFF762FB08B1FFF719
:1056D00095FC1020CDE900042B4600221E491FA096
:1056E000FFF756FB08B1FFF789FC1120CDE9000454
:1056F0002B4600221A491BA0FFF74AFB08B1FFF70F
:105700007DFC00207CBD18A0FEF7BEFD6FF00300FD
:105710007CBD000067776C6B000000004C0000202F
:1057200063616E20696E6974206572726F722120E8
:105730000A0000007362757320696E6974206572D7
:10574000726F7221200A0000BC240020F954000866
:1057500073627573000000009936000866736D006F
:105760000534000863616E0063616E2072782071F9
:1057700075657565206572726F7221200A000000E0
:1057800000089C09280B920CCC0DCA0E810FE80F63
:10579000FD0FBF0F2F0F540E360DE20B650ACF0819
:1057A00031079B051E04CA02AC01D1004100030071
:1057B00018007F00360134026E03D8046406000826
:1057C00000000100020001000300010002000100CE
:1057D00004000100020001000300010002000100BA
:1057E00005000100020001000300010002000100A9
:1057F000040001000200010003000100020001009A
:105800000600010002000100030001000200010087
:105810000400010002000100030001000200010079
:105820000500010002000100030001000200010068
:105830000400010002000100030001000200010059
:105840000700010002000100030001000200010046
:105850000400010002000100030001000200010039
:105860000500010002000100030001000200010028
:105870000400010002000100030001000200010019
:105880000600010002000100030001000200010007
:1058900004000100020001000300010002000100F9
:1058A00005000100020001000300010002000100E8
:1058B00004000100020001000300010002000100D9
:1058C0003031323334353637383961626364656676
:1058D000003031323334353637383941424344456C
:1058E00046000000175300080F5300080B53000830
:1058F0001353000814590008000000202C01000078
:105900005C080008685900082C010020AC2B00003E
:105910005029000811847A030A6809010203040669
:105920000708090CA9100164228C2A20042A788017
:10593000311A9C0C2904322032021AAC0C29043290
:105940002432041ABC0C2904323032051ACC0C293A
:1059500004323432081ADC0C2904324029C51AEC0E
:085960000C290402372C0000A1
:040000050800018965
:00000001FF
